:020000040800F2
:10000000D8060020650100082D1600082B160008F0
:1000100000000000000000000000000000000000E0
:100020000000000000000000000000003116000881
:1000300000000000000000002F1600083316000822
:100040007701000800000000770100087701000830
:1000500077010008770100087701000877010008A0
:100060000000000077010008770100087701000810
:1000700077010008770100083D1600080000000025
:100080007701000877010008770100087701000870
:100090007701000877010008770100087701000860
:1000A0007701000877010008770100087701000850
:1000B00077010008770100080000000077010008C0
:1000C00000F002F800F03EF80CA030C80838241800
:1000D0002D18671EA246AB4654465D46AC4201D180
:1000E00000F030F87E460F3EB6460FCC0126334274
:1000F00000D0FB1A3343A246AB46184784190000D0
:10010000A4190000103A02D378C878C1FAD852076F
:1001100001D330C830C101D504680C6070470000BD
:100120000023002400250026103A01D378C1FBD813
:10013000520700D330C100D50B6070471FB51FBDFB
:1001400010B510BD00F0B4F91146FFF7F7FF01F04C
:100150007DFA00F0CCF903B4FFF7F2FF03BC00F026
:10016000D3F900000748804707480047FEE7FEE74D
:10017000FEE7FEE7FEE7FEE704480549054A064BB1
:10018000704700003B160008C1000008D80000209E
:10019000D8060020D8020020D802002070477047FF
:1001A0007047000030B50346CA02400D1043164D9B
:1001B000164C0A1502D02043002A06DBAA1A002A90
:1001C00012DDD040FF2A0BDC30BD5205520D01D1AB
:1001D00040004008AA1A07D4D0404042FF2A01DD5F
:1001E000002030BD0028FCDD4A00002B01D001209A
:1001F00000E00020101801225205D042F0D8C817A4
:10020000C043604030BD00001E04000000000080BC
:100210001F22030C02D10F22000402D0030E03D0D0
:1002200004E00020014670470002083A030F01D1A4
:100230000001121F830F01D18000921E002801DBF4
:100240004000521E120551184205C01241181046B6
:100250007047C10FC90700D04042012292071143E5
:10026000D6E701218907D3E7F0B58B4C0F09254666
:1002700089B0BD437BD01D092646AE43FAD00E4659
:100280005E402740F60F3E43254071D024012142B5
:10029000FBD0FF24AD19A4042D1B039501252D05CA
:1002A000DB02DB0AC9022B43C90A29431E010901EB
:1002B000040F130F050121431701880B820391439B
:1002C0002D098C46A90B1E438A039543B30B9A0351
:1002D00096433F09BA0B9403A74302962E467E43EA
:1002E0000497B6464E19D7190C4601965443059704
:1002F0007E43371B7646BF1B3601B646BE0B36190A
:1003000000967646BC043719009C01D3641C009407
:100310006400002F01D001263443029E049F7543E0
:1003200066467E430496760034196E0034190094B4
:10033000029C019E1C196643751BAE4606946546D9
:100340004519059C05956C43594375460891691AF2
:100350000191049E01465143A41B0491611A009C23
:100360000791E10605D061090122114302E072E024
:100370006EE06109089D00272C0A2D066918049D6E
:100380007C412A0A2D066918019D6241AC0DAD021F
:100390006D185441079A910D920255196141029AC4
:1003A000644658435443069B059A5A43121A131B3A
:1003B0009A0E9B015B187A41010B0005C31851414D
:1003C000220A200644195A419A4200D2491C0120AF
:1003D0004002814203D315230226F64302E0142390
:1003E0000326F6432020C51AA9401746AF40DA403D
:1003F0000A4320460399D840091473181905511867
:10040000039A3843D2075140AC4009D001229440AE
:1004100006D30022401C5141002C01D1400840006D
:100420001E4A934212D3012203989206904207DBA0
:100430000520400709181A480143C012414004E052
:10044000032040070818C10FC907002009B0F0BDFC
:100450000020F107FAE705180C464C4111486D429F
:10046000A04115D394181A465A410E48644290414F
:100470000ED301204A004005824209D35A0082422D
:1004800006D35940C90F084AC90700201143DDE7C8
:1004900000200649DAE700000000FF07FE07000021
:1004A000FFFFFF7F0000E0FF0000F07F0000F87F0B
:1004B000754600F025F8AE46050069465346C0086B
:1004C000C000854618B020B5FFF756FE60BCB646A2
:1004D00000260027C0C5C0C5C0C5C0C5C0C5C0C5B1
:1004E000C0C5C0C5403D490849008D46704710B59C
:1004F0000446C046C0462046FFF72DFE10BD000052
:10050000004870471000002001491820ABBEFEE7EC
:100510002600020070470000B0B5044600F006F95E
:100520000546601C02D09E480078041900F0FEF8D1
:10053000401BA042FAD3B0BDF0B58EB007466E485E
:10054000874201D0052000E00320009008680C904D
:10055000002800D1CEE00123002403930B940A94D9
:100560000791099711E00C9A1043644AD06008681B
:100570000C90D840241D5B1C0B9A921C0B920A9A7B
:10058000521C0A92002800D1B4E05A1E0398089227
:1005900090400C9A02400C92E9D005934B680326D8
:1005A0001A463240551E012D0694029318D8032690
:1005B0000B9FBE40099CA168B143079DED68BD40FB
:1005C0000D43A560D906C90F089DA94065688543FC
:1005D0000D436560069C0799F3430A9845000BE0BC
:1005E00030460B9DA840C343032A05D104930B98C2
:1005F0003246099F029B22E0099F2E46F868184068
:100600008D680196B5400543FD60022A049314D11C
:100610001C2020400F218140089AD2089200BA186D
:10062000156A8D4307990E6986402E430799166215
:10063000099F4B6803221A4000E0029B0198824008
:100640003868049D2840104338609803800F059B4C
:100650008DD05E4A10680121084310601068084080
:100660000D900C2222400F2595400320089E8643C2
:100670000D98234C3059A84335190926F606099CD4
:10068000B442099F09D01F4CA74207D01E498F4290
:100690000099069C03D1022101E00021069C9140B3
:1006A000014329601548006807994D68EA0302D59F
:1006B0000C9A104301E00C9A9043104A1060506865
:1006C000AA0302D50C9A104301E00C9A90430B4AFE
:1006D00050609068EA0202D50C9A104301E00C9A2F
:1006E0009043064A9060D068AA0200D53BE70C9A76
:1006F00090433AE70EB0F0BD000C00480004014002
:1007000008000140000400480008004842690B4608
:1007100093430A401104C91881617047002A02D02E
:100720001822815070472822815070470548006880
:100730007047C0461A48007802490A6810180860D5
:100740007047C046D000002080B582480168102262
:100750000A430260032000F005F800F023F80020AF
:1007600080BDC04670B504467D20C0000C4E317877
:1007700001F062F801467E48006801F05DF800F083
:1007800001FB0125032C08D8002806D10025E843E9
:1007900021462A4600F028F87460284670BDC046FD
:1007A0000000002082B00948016801221143016065
:1007B0000168114001910199110742680A434260A2
:1007C000406808400090009802B07047181002403E
:1007D000002805D41F210840012181400148016003
:1007E0007047C04600E100E0002805D4032203461C
:1007F00093430C4A9A1806E00F220240083A03235A
:100800009A43074BD2188007C00E8901C9B28140B4
:10081000FF23834010689843084310607047C04628
:100820001CED00E000E400E0F0B581B0002861D0EC
:100830000446484A1368012003408B4208D21368DB
:100840000126B3430B431360126832408A424ED1F3
:10085000009121688A07404B11D54A0707D5072226
:1008600012023D4B1B6813433B4A13603A4B1A6814
:10087000F0239A43A3681343374A1360364BC907E2
:100880003CD13449086801263040009A904205D98D
:100890000868B04308600868C00728D1207840077E
:1008A00006D50720000219688143E06808431860F4
:1008B00019680C220A402A48082A0CD18902090F1B
:1008C000284A545C996A0F220A402749895C00F043
:1008D000B3FF214B604319680906090F234A515C95
:1008E000C840234908600320FFF73CFF002630463C
:1008F00001B0F0BD0126304601B0F0BD61681A1F9D
:10090000022906D0012909D1126892030646EED5C4
:1009100008E0126892010646E9D503E012689207E2
:100920000646E4D518680326B04308431860FFF76D
:10093000FDFE0746094D084B18680C210140606810
:10094000800081429DD0FFF7F1FEC01BA842F2D982
:10095000CDE7C0460020024004100240881300008A
:1009600000127A00601A0008701A00082E1A000897
:1009700008000020F0B587B004460120002C00D10B
:10098000F5E104902078C007FB4E059419D07168FA
:100990000C20014004290DD071680140082900D0C5
:1009A000C0E00320C00371680140012000048142BF
:1009B00000D0B7E03068800303D56068002800D11C
:1009C00018E1207880071FD570680007800F0CD0D1
:1009D00070680C21014008297AD10320C003716896
:1009E00001400120C003814272D130688007059C1C
:1009F00003D5E068012800D0FCE03068F821884386
:100A00002169C90001433160059C2078000724D486
:100A10002078400736D42078C00600D4C5E0059879
:100A20004069411D00D1B4E0012800D007E1706B9E
:100A3000042101437163706B012101437163FFF76E
:100A400075FE0546706B800700D5A6E0FFF76EFEC9
:100A5000411B03200229F5D989E1706AE169002967
:100A600074D0012108437062FFF760FE0546706A8A
:100A70008007CDD4FFF75AFE401B0228F7D9032088
:100A800007B0F0BD012003900107F0690840029013
:100A900006D1F0690843F061F069084006900698B5
:100AA0000191B64F3868C00528D40398040238680D
:100AB00020433860FFF73AFE0546386820421DD1D2
:100AC000FFF734FE401B6428F7D9032007B0F0BDC0
:100AD0003068059CE16800294AD001210843306054
:100AE000FFF724FE05463068800786D4FFF71EFE18
:100AF000401B0228F7D9032007B0F0BD0598806895
:100B00009F4F002800D1AFE0052800D1C1E00128A7
:100B100000D1C2E0306A039988433062306A042110
:100B20008843BDE0616801204704002900D1D0E07E
:100B3000052900D1E4E0012900D1E5E00104326893
:100B40008A433260810430688843E0E001218843B1
:100B50007062FFF7EBFD0546706A800700D457E727
:100B6000FFF7E4FD401B0228F6D9032007B0F0BDD3
:100B7000012188433060FFF7D9FD054630688007C2
:100B800000D441E7FFF7D2FD411B03200229F5D92C
:100B9000EDE0706B042188437063706BF82188432B
:100BA00005998969C900014371630598046A002C9D
:100BB0001DD070680C21014008291ED1012C19D0CC
:100BC0000320C20370680240F16A059C636A9A427E
:100BD00010D10F221140E36A9942049B00D0C8E073
:100BE00091040840A16A8842184600D0BFE0002066
:100BF00007B0F0BD049807B0F0BD012002063168CF
:100C00000492914331604706FFF790FD0546022CA0
:100C10000BD1049C3068384200D188E0FFF786FD94
:100C2000411B03200229F5D9A1E030683842DED00B
:100C3000FFF77CFD411B03200229F6D997E0706B7A
:100C4000042101437163706B012188437063FFF7D6
:100C50006DFD0546706B8007A7D5FFF767FD411B4B
:100C600003200229F6D982E0306A03998843306272
:100C7000306A042188433062FFF758FD0546306A28
:100C800080071CD5FFF752FD411B0320B942F6D95E
:100C90006DE0306A042101433162306A03990843F0
:100CA0003062FFF743FD0546306A800707D4FFF73F
:100CB0003DFD401BB842F7D9032007B0F0BD0298B4
:100CC0000028059C00D0A6E6F06901998843F061F0
:100CD000A1E6010432688A433260800431688143AE
:100CE0003160FFF723FD0546059C3068384200D18E
:100CF00067E6FFF71BFD411B03206429F5D936E0A9
:100D0000810432680A43326001043068084330606D
:100D1000FFF70CFD05463068384200D051E6FFF77A
:100D200005FD401B6428F6D9032007B0F0BDF06A2A
:100D30000F218843059AD16A0143F1627B20C003E9
:100D400071688143906A0843516A01437160306859
:100D500020433060FFF7EAFC04463068384200D098
:100D600045E7FFF7E3FC011B03200229F5D907B093
:100D7000F0BD184607B0F0BD001002400070004002
:100D800088130000401E010E01D001207047074962
:100D9000074A5060074803680B4003218907591828
:100DA000016000209060072111607047FFFFFF0085
:100DB00010E000E020ED00E07047704710B53C22E5
:100DC000825C012A01D1022010BD02463C3202237E
:100DD0005370006843687024A3430C681C43836805
:100DE00044603A4CA04205D03A4CA04202D0574C45
:100DF000A04204D18024A3434968194381600020A4
:100E000010700121517010BDB0B5002824D00446E7
:100E100005463C356878002804D10020287020461B
:100E200000F062F80220687020680368474A904228
:100E300002D02649884211D170218B43A168194301
:100E4000234B98420EDC214B984214D0244B9842FD
:100E500011D090420FD037E00120B0BD19461C4B95
:100E60009842F0DD1B4A904205D01B4A904202D0C6
:100E70001A4A904228D103221202914322690A435E
:100E800080218A43A16911430160E168C162616800
:100E90008162144941180A22D141072906D801224A
:100EA0008A40E1210A4201D0616901630121416167
:100EB000A972A970E97029716971A971E971297222
:100EC000697269700020B0BD0A46D9E7000400408D
:100ED000FF3F014000400140004801400044014004
:100EE0000020004000D4FEBFB0B586B000681749AE
:100EF000884201D006B0B0BD0120C102144A536837
:100F00000B43536053680B400193019941041368EC
:100F10000B43136012680A400092022105910024DD
:100F20000494039402910002019000980920C006E5
:100F300001A9FFF701FB0E25284621462246FFF7AF
:100F400053FC2846FFF744FC06B0B0BD002C01401E
:100F500014100240F0B53C22825C012A01D102202B
:100F6000F0BD02463C3202235370504E3346773B6D
:100F70000468A0681840A0600D6800234F2D1EDC97
:100F80001F2D35DD202D37D0302D35D0402D00D010
:100F900086E0206A256A0126B5432562A569F02608
:100FA000B543CE6836012E43A6610A25A843496899
:100FB00001432162A06847210143302069E06F2D81
:100FC00026DD01204703BD4240D00003854218467C
:100FD0001AD0702D64D1A06830404D688E68C96801
:100FE0002E43090231430143A160A068772139E013
:100FF000002D01D0102D53D1A068702188430543E6
:1010000007202843A0601846137001215170F0BDDD
:10101000502D29D0602D43D11020C043256A0540B2
:1010200025620F252D03A669AE43CD682D033543F8
:10103000266AA561A025AE434968090131432162B2
:10104000A16867250D430540A56024E0A5683540EB
:101050004E688F68C9683743090239432943A16044
:101060008003A168014315E0206A256A0126B54383
:101070002562A569F026B543CE6836012E43A661E8
:101080000A25A843496801432162A068572101430A
:1010900020208143A1601846137001215170F0BDDA
:1010A0000120137001215170F0BDC046FF00FFFF09
:1010B000F0B581B004462A4E3069401C3061207F73
:1010C00001284AD1377800252046294600F090FAB9
:1010D000002F07D0B06027687D62716888420FD901
:1010E000401A11E00121317021680A6A0A239A43EB
:1010F0000A627060086A022202430A6201B0F0BD0F
:1011000004D2401A17494018F06000E0F068FFF779
:10111000A8F8154A154BFFF7A7F80025144B2A46E7
:10112000FFF7A2F8FFF73EF87070142809D81148AD
:101130008021FFF7EBFA0920C0062021FFF7E6FA2D
:101140002768386A0A2188433862386A38623570FD
:10115000B069C16802229143C16001B0F0BDC046D0
:1011600070000020FFFF00009CC420B07268A13F07
:101170000000E03F00080048F0B582B03C23C35CAB
:10118000012B02D1022002B0F0BD03463C33022401
:10119000E241032A00D9A4E07A441279520097442C
:1011A000012E52730268146A012084431462966906
:1011B000CC68019430C90095156AB64F0839BA4217
:1011C00005D0B54FBA4202D0B44FBA4202D1032083
:1011D00086430098064310461830F027BE43019F0F
:1011E0003F01FFB2F61996610A263440B5432C1927
:1011F000146294690C25AC439461896869E00068C5
:10120000026A1024A24302624A681202374C144058
:10121000CA68120392B21219F32424028569A54305
:101220001543026A85610C682401A0252C40AA435D
:1012300012190262032292028469944384618968CC
:101240000902183045E0012212020068046A944342
:1012500004624A68F024A243CC682401E4B2A218D4
:10126000C469F325AC431443026AC46105246402D3
:101270000D682D022540A24352190262C2690C2456
:10128000A243C261896823E0012212030068046A54
:10129000944304624A681202144C1440CA68120350
:1012A00092B21219F3242402C569A5431543026AB8
:1012B000C561052464030D682D032540A24352191E
:1012C000026203229202C4699443C46189680902DC
:1012D0001C3002680A43026000200021197002B02D
:1012E000F0BD01200021197002B0F0BD000FFFFF1A
:1012F000B0B5002824D0044605463C35687800285F
:1013000004D100202870204600F05EF802206870AA
:1013100020680368614A904202D05E49884211D138
:1013200070218B43A1681943224B98420EDC594B24
:10133000984214D0224B984211D090420FD037E0FF
:101340000120B0BD19461B4B9842F0DD524A904235
:1013500005D0194A904202D0184A904228D103225F
:101360001202914322690A4380218A43A1691143F1
:101370000160E168C16261688162124941180A2214
:10138000D141072906D801228A40E1210A4201D031
:101390006169016301214161A972A970E970297134
:1013A0006971A971E9712972697269700020B0BD13
:1013B0000A46D9E7FF3F0140004801400044014090
:1013C0000020004000D4FEBF70470000B0B50346C7
:1013D0003E33002906D0082910D0042911D15C1D04
:1013E0005A1C10E01C78012254401D7955402543B9
:1013F0002C064AD102221A701A7119E09C1D9A1CFF
:1014000001E0DC1DDA1C1578012255402478544097
:101410002C43240639D10222082904D0042905D1FD
:101420005A705A7104E09A709A7101E0DA70DA71B8
:1014300002230A46DA41032A21D89200144B9A5813
:101440000068C3681343C3601F2211400122134682
:101450008B40016A99430162016A194301620D4997
:10146000884205D00C49884202D0F249884208D10E
:10147000816807230B40062B03D10020B0BD01205B
:10148000B0BD01681143016000221046B0BDC046E6
:10149000401A00080004004000400140002C0140B8
:1014A000B0B504468020C54320680169890717D577
:1014B000C168890714D529467E3101610121217750
:1014C0008069800703D02046FFF7F2FD05E0204643
:1014D00000F08AF8204600F088F800202077206885
:1014E0000169490718D5C168490715D529467C31D6
:1014F00001610221217780698005800F03D0204699
:10150000FFF7D6FD05E0204600F06EF8204600F01B
:101510006CF80020207720680169090717D5C16899
:10152000090714D529467831016104212177C06962
:10153000800703D02046FFF7BBFD05E0204600F002
:1015400053F8204600F051F8002020772068016908
:10155000C90618D5C168C90615D52946703101617B
:1015600008212177C0698005800F03D02046FFF74E
:101570009FFD05E0204600F037F8204600F035F8E2
:101580000020207720680169C90709D0C168C90710
:1015900006D029467F310161204600F027F82068F7
:1015A0000169090607D5C168090604D50561204609
:1015B000FFF702FC20680169490609D5C1684906A0
:1015C00006D5294640310161204600F02DF82068FB
:1015D0000169890607D5C168890604D560350561AA
:1015E0002046FFF7EAFBB0BD704770477047000028
:1015F0000222D141032909D87944097949008F444D
:1016000001070B0F006834300068704700207047F6
:10161000006838300068704700683C3000687047E8
:1016200000684030006870477047FEE7FEE770478B
:10163000704780B5FFF77EF880BD704780B50248DF
:10164000FFF72EFF80BDC0468800002096B0FFF750
:101650007BF800240B940A94099408940794069448
:101660000F94012001050E916E49491C0D91022530
:101670000C950590049004A8FFF77CF9002803D08E
:10168000EFF3108072B6FEE71394129411950720C1
:10169000109010A801273946FFF7C6F8002803D09C
:1016A000EFF3108072B6FEE703950894B9055E4823
:1016B00002680A43026002680A4010921099790495
:1016C00002680A43026002680A4010921099F90405
:1016D00002680A43026000680840109010980920D0
:1016E000C5067E023146203128462246FFF716F80D
:1016F0004E48802101912246FFF710F80794069486
:1017000005977D20800002902C30049004A9009160
:101710002846FEF711FF0794069405970198049058
:1017200042480099FEF708FF0097414F2F2041499A
:10173000B961F8613C623B487862BC62FC623C6320
:101740000794069405941594149438461830019023
:10175000FFF75AFB002803D0EFF3108072B6FEE7C4
:1017600000980003049004A90198FFF7F3FB0028F8
:1017700003D0EFF3108072B6FEE70198FFF7B8FDD3
:10178000002803D0EFF3108072B6FEE714A9019889
:10179000FFF714FB002803D0EFF3108072B6FEE7CA
:1017A0001394129400981190109410A90198224655
:1017B000FFF7E2FC002803D0EFF3108072B6FEE7DB
:1017C000002401982146FFF701FE0FE00022284681
:1017D0003146FEF7A3FFB869C168039A1143C1609F
:1017E0007869401C78610298FEF796FE28463146DB
:1017F0002246FEF793FF0A20FEF78EFE01222846BE
:101800003146FEF78BFFB8694462416A0929DDD889
:10181000416A0929DAD8416A0929D7D8416A0A29CF
:10182000F3D3D3E7FFFF0000141002400008004884
:1018300070000020002C014043088B421AD3002284
:1018400003098B4279D3030A8B425ED3030B8B428D
:1018500042D3030C8B4227D30902FF2212BA030C96
:101860008B4202D31212090203D0030B8B4233D3F3
:101870001AE0D3E0411A8041401C704703460B43F5
:1018800071D443088B42F5D3002203098B4254D311
:10189000030A8B4239D3030B8B421DD3030C8B42BB
:1018A00002D394466EE0090AC30B8B4201D3CB03EB
:1018B000C01A5241830B8B4201D38B03C01A524191
:1018C000430B8B4201D34B03C01A5241030B8B4293
:1018D00001D30B03C01A5241C30A8B4201D3CB027E
:1018E000C01A5241830A8B4201D38B02C01A524163
:1018F000430A8B4201D34B02C01A5241030A8B4266
:1019000001D30B02C01A5241CDD2C3098B4201D37D
:10191000CB01C01A524183098B4201D38B01C01AFB
:10192000524143098B4201D34B01C01A5241030972
:101930008B4201D30B01C01A5241C3088B4201D321
:10194000CB00C01A524183088B4201D38B00C01ACE
:10195000524143088B4201D34B00C01A5241411AF5
:10196000524110007047CA0F00D04942031000D303
:101970004042534000229C4603098B422DD3030A68
:101980008B4212D38901FC2212BA030A8B420CD378
:10199000890192118B4208D3890192118B4204D3A1
:1019A000890137D0921100E08909C3098B4201D324
:1019B000CB01C01A524183098B4201D38B01C01A5B
:1019C000524143098B4201D34B01C01A52410309D2
:1019D0008B4201D30B01C01A5241C3088B4201D381
:1019E000CB00C01A524183088B4201D38B00C01A2E
:1019F0005241D9D243088B4201D34B00C01A524105
:101A0000411A00D201465241104663465B1000D392
:101A10004042704763465B1000D3404201B500214D
:101A2000004201D0C9430846C046C04602BD00007E
:101A3000000000000000010203040607080900007E
:101A40000200000004000000080000001000000078
:101A5000FDFFFFFFFBFFFFFFF7FFFFFFEFFFFFFFB4
:101A600002030405060708090A0B0C0D0E0F1010DF
:101A70000102030405060708090A0B0C0D0E0F10DE
:101A8000A01A000800000020100000000401000857
:101A9000B01A000810000020C8060000200100084D
:101AA000010000000400000000127A0000000000A5
:04000005080000C12E
:00000001FF
